:020000040800F2
:100000000040002061620008455A00084B5A000871
:1000100000000000000000000000000000000000E0
:10002000000000000000000000000000515A00081D
:1000300000000000000000005B5A0008655A00083C
:10004000B1620008B1620008B1620008B162000844
:10005000B1620008B1620008B1620008735A00087A
:10006000B1620008855A00089D5A0008B162000874
:10007000B1620008B1620008B1620008B55A000818
:10008000B1620008B1620008B1620008B162000804
:10009000B1620008B1620008B1620008B1620008F4
:1000A000B1620008B1620008B1620008B1620008E4
:1000B000B1620008B1620008B1620008B1620008D4
:1000C00010B5064C2378002B07D1054B002B02D02E
:1000D000044800E000BF0123237010BD740000201D
:1000E0000000000064A70008044B10B5002B03D0EB
:1000F0000349044800E000BF10BDC04600000000F6
:100100007800002064A70008002243088B4274D3C3
:1001100003098B425FD3030A8B4244D3030B8B4208
:1001200028D3030C8B420DD3FF22090212BA030C11
:100130008B4202D31212090265D0030B8B4219D3F2
:1001400000E0090AC30B8B4201D3CB03C01A524112
:10015000830B8B4201D38B03C01A5241430B8B425A
:1001600001D34B03C01A5241030B8B4201D30B0343
:10017000C01A5241C30A8B4201D3CB02C01A52416A
:10018000830A8B4201D38B02C01A5241430A8B422D
:1001900001D34B02C01A5241030A8B4201D30B0216
:1001A000C01A5241CDD2C3098B4201D3CB01C01A30
:1001B000524183098B4201D38B01C01A524143093A
:1001C0008B4201D34B01C01A524103098B4201D328
:1001D0000B01C01A5241C3088B4201D3CB00C01A95
:1001E000524183088B4201D38B00C01A524143080D
:1001F0008B4201D34B00C01A5241411A00D2014632
:10020000524110467047FFE701B5002000F0F0F8BA
:1002100002BDC0460029F7D076E7704703460B437E
:100220007FD4002243088B4274D303098B425FD3EF
:10023000030A8B4244D3030B8B4228D3030C8B421B
:100240000DD3FF22090212BA030C8B4202D3121201
:10025000090265D0030B8B4219D300E0090AC30BD6
:100260008B4201D3CB03C01A5241830B8B4201D383
:100270008B03C01A5241430B8B4201D34B03C01A6C
:100280005241030B8B4201D30B03C01A5241C30AE4
:100290008B4201D3CB02C01A5241830A8B4201D355
:1002A0008B02C01A5241430A8B4201D34B02C01A3F
:1002B0005241030A8B4201D30B02C01A5241CDD2E4
:1002C000C3098B4201D3CB01C01A524183098B422F
:1002D00001D38B01C01A524143098B4201D34B0118
:1002E000C01A524103098B4201D30B01C01A52417B
:1002F000C3088B4201D3CB00C01A524183088B4202
:1003000001D38B00C01A524143088B4201D34B00EA
:10031000C01A5241411A00D201465241104670475C
:100320005DE0CA0F00D04942031000D34042534061
:1003300000229C4603098B422DD3030A8B4212D321
:10034000FC22890112BA030A8B420CD38901921153
:100350008B4208D3890192118B4204D389013AD090
:10036000921100E08909C3098B4201D3CB01C01A65
:10037000524183098B4201D38B01C01A5241430978
:100380008B4201D34B01C01A524103098B4201D366
:100390000B01C01A5241C3088B4201D3CB00C01AD3
:1003A000524183088B4201D38B00C01A5241D9D2EB
:1003B00043088B4201D34B00C01A5241411A00D26C
:1003C0000146634652415B10104601D34042002B68
:1003D00000D54942704763465B1000D3404201B5E7
:1003E000002000F005F802BD0029F8D016E770479C
:1003F0007047C0468446100062468C46190063462A
:1004000000E0C0461FB501F07DFE002801D40021A8
:10041000C8421FBD10B501F0CDFD4042013010BDF6
:1004200010B501F06FFE002801DB002010BD012097
:1004300010BDC04610B501F065FE002801DD0020AA
:1004400010BD012010BDC04610B501F0F5FD00281B
:1004500001DC002010BD012010BDC04610B501F028
:10046000EBFD002801DA002010BD012010BDC046C0
:10047000844608006146FFE71FB500F08BFB0028AB
:1004800001D40021C8421FBD10B500F017FB404247
:10049000013010BD10B500F07DFB002801DB00200D
:1004A00010BD012010BDC04610B500F073FB002840
:1004B00001DD002010BD012010BDC04610B500F0C8
:1004C00023FB002801DC002010BD012010BDC04628
:1004D00010B500F019FB002801DA002010BD012042
:1004E00010BDC0469E2110B5C905041CFFF7F0FFE2
:1004F000002803D1201C00F07BFE10BD9E21201C93
:10050000C90500F0B1FC00F073FE80231B069C4679
:100510006044F2E770B500220C4B04000D00FFF7B9
:100520009DFF002804D12000290002F06BFC70BD63
:10053000064B00222000290002F0B4F802F062FC11
:1005400080231B069C466044F1E7C0460000E04162
:10055000F0B5C64643025B0A4E0245004F00DA0082
:10056000C40F9C46700A904600B52D0E3F0EC90F71
:10057000B6098C424BD0EA1B002A36DD002F61D031
:10058000FF2D00D1ADE08023DB041E431B2A00DCDD
:10059000D3E001204346181A430100D48CE08001C7
:1005A0008709380002F08AFD05388740854200DC63
:1005B000B6E02D1AB3483840430704D00F23034058
:1005C000042B00D00430430100D478E06A1CFE2DD7
:1005D00065D08001430A9C46D2B26346D0051843D9
:1005E000E407204380BCB846F0BD002A35D07A1B12
:1005F000002D00D0AFE04346002B00D1A7E0531EF2
:10060000012A00D12FE1FF2A69D01A00AAE0E91BD4
:10061000002970DD002F37D0FF2D62D08023DB044E
:100620001E431B2900DCB0E001204044430143D5B8
:100630000135FF2D33D00123934A03404008104079
:100640001843B9E7002E00D183E0511E012A00D1E2
:10065000D8E0FF2A45D00A0098E7FE276A1C174217
:1006600000D086E0002D00D0B7E04346002B00D13B
:10067000F3E00022002EB0D0981B430100D4FAE032
:1006800043460C00F01A97E7002E00D1C8E04A1E3E
:10069000012900D1AEE0FF2923D01100C1E70023DA
:1006A000FF229C4699E7FE216A1C114277D0FF2A5F
:1006B000F5D0150046447008430700D07EE7C30814
:1006C000FF2D0ED05B025B0A9C46EAB285E7002E46
:1006D00007D08022D203134203D0104201D10C0074
:1006E0000300002BDBD08020C00318434002430AE4
:1006F0009C46FF2271E70029D5D07A1B002D60D1DE
:100700004346002B24D0531E012A73D0FF2AE7D082
:100710001A001B2A00DC85E001203D00801985E7D6
:1007200020233A00451B38000135EA405D1BA840F4
:10073000431E9841002510433EE7202330009B1ABA
:1007400031009840D140431E9841084322E70C00F5
:1007500003001500B4E7FF2FC1D080234046DB041F
:10076000184380461B2A51DD01200C003D00301A41
:1007700012E743469F1B7B012BD4002F00D010E7CC
:100780000023002400229C4627E72023320030006B
:10079000CA40591A8840431E9841104345E7002D2E
:1007A0004AD14346002B63D00022002E00D114E72B
:1007B00030004044430100D47EE7324B01351840FD
:1007C0007AE7FF2F8CD080234146DB04194388460B
:1007D0009FE743460C00F71AE3E64246002A00D0A2
:1007E00075E7002E00D07AE78023DB0300249C46C7
:1007F000FF22F2E6300040440125430100D45BE7CC
:10080000022518E743460125981BC5E620234446E8
:100810004046D4409A1A9040431E98412043A4E792
:100820000D004DE7202341464046D1409A1A9040A2
:10083000431E9841084370E74246002A00D14FE723
:10084000002E00D14DE78022D203134200D148E7A9
:10085000104200D045E7030043E7002E90D00C0083
:1008600084460022B9E643460C00F01A013593E6AF
:1008700084460022B1E6002800D01DE700230024B2
:100880009C46AAE6FFFFFFFBFFFFFF7DF0B54F464A
:100890004646D6464502C0B547000C1C6D0A3F0EC1
:1008A000C60F002F00D170E0FF2F00D175E0EB00E4
:1008B0008025ED041D43002399469A467F3F600240
:1008C000430A984663001B0EE40F002B4ED0FF2B0B
:1008D00046D04246D0008022D204024390460022F5
:1008E0007F3B3100FF1A4B466140C9B213430F2BC7
:1008F00000D9B5E06E489B00C3589F460023984638
:100900002600454692465346022B00D189E0032B30
:1009100000D19EE0012B18D03B007F33002B69DD16
:100920006A0704D00F222A40042A00D004352A0185
:1009300003D5604B1D403B008033FE2B00DD70E093
:10094000AD016D0AD8B202E00E0000200025C005FE
:100950002843F6073043E0BCBA46B146A846F0BD8E
:100960004346002B3FD10222FF3F03E04346002BCA
:100970002DD1012231004B466140C9B213430F2BE8
:1009800034D84D489B00C3589F46002D13D10423F3
:100990009946033B00279A4691E7002D05D108238D
:1009A0009946063BFF279A4689E70C239946093B5F
:1009B000FF279A4683E7280002F080FB7627431F33
:1009C0009D4000237F4299469A463F1A77E740466A
:1009D00002F074FB4246431F9A4076235B429046E6
:1009E0001B1A00227DE7FF2303227AE70E00FF2077
:1009F0000025ACE70120C01A1B28A6DC9E372A0080
:100A0000BD40C2406B1E9D4115436B0704D00F23B0
:100A10002B40042B00D004356B0144D50120002568
:100A200095E7FF20002592E780250026FF20ED03B3
:100A30008DE7002398468020C003054209D0434635
:100A4000034206D1454605436D022600FF206D0A8C
:100A50007DE78020C00305436D02FF206D0A76E725
:100A600042466B015001834219D21B220025013FEF
:100A700001261C006D005B00002C01DB984201D8B0
:100A80001B1A3543013A002AF3D15A1E93411D43E4
:100A90003B007F330E00002B00DD41E7AAE71A225E
:100AA00001251B1AE4E7AD0100206D0A4FE7C0469F
:100AB00080A70008FFFFFFF7C0A7000870B542003D
:100AC00045024E024C00C30F6D0A0120120E760A39
:100AD000240EC90FFF2A06D0FF2C03D0A24201D159
:100AE000B54206D070BD002DFCD1FF2CFAD1002EEE
:100AF000F8D18B4206D00120002AF3D12800431EF2
:100B00009841EFE70020EDE770B5420045024E0244
:100B10004C00C30F6D0A120E760A240EC80FFF2A6E
:100B20001BD0FF2C0ED0002A1BD1002C01D1002E8F
:100B30001CD0002D0CD083421CD00221581E08402E
:100B4000013870BD002E22D1002AF4D1002DF2D13F
:100B50000028F6D101204042F3E7002D17D1FF2CE9
:100B6000F0D0002CE7D1002EE5D1E6E70020002DE3
:100B7000E7D0E2E7A24205DCEADBB54202D8E7D3E0
:100B80000020DEE74342584140000138D9E7022007
:100B90004042D6E770B5420045024E024C00C30FFA
:100BA0006D0A120E760A240EC80FFF2A0BD0FF2CF6
:100BB0000DD0002A1FD1002C16D1002E14D10020F8
:100BC000002D10D009E0002D0CD1FF2C13D1002EE8
:100BD00008D1002A08D0834212D00221581E0840B2
:100BE000013800E0022070BD002DF4D10028FAD1B8
:100BF00001204042F7E7002CEDD1002EEBD1ECE7CD
:100C0000A24205DCF2DBB54202D8EFD30020EAE7CE
:100C10004342584140000138E5E7C046F0B54F4631
:100C20004646D64644024500C0B5640A0F1C2D0E48
:100C3000C60F002D00D18DE0FF2D00D192E00023E2
:100C4000802099469A46E400C00404437F3D780220
:100C5000430A98467B001B0EFF0F002B00D170E06B
:100C6000FF2B00D186E04246D00080227F3BED186A
:100C70000023D204024390469C4631004B46794003
:100C8000681C0F2B1CD8764A9B00D3589F4639000E
:100C90004446E2465346022B0FD0032B00D1D7E047
:100CA000012B37D100200024C0052043C907084389
:100CB000E0BCBA46B146A846F0BDFF200024F3E7E9
:100CC000260C2404220C44462404240C434627000A
:100CD0001B0C574374435A435E4312193B0C9B1839
:100CE0009C4203D980225202944666443F041A046F
:100CF0003F0CD2199401671EBC411B0C920E9B192C
:100D000014439B011C431B0100D49BE00123620898
:100D10001C40144302007F32002A64DD630704D0C4
:100D20000F232340042B00D00434230103D50200F9
:100D30004C4B80321C40FE2ABFDCA401640AD0B2B6
:100D4000B2E74346002B3DD14A4601331A43914650
:100D50009C4692E7002C29D104239946033B0025A9
:100D60009A4674E7002C1BD108239946063BFF25C1
:100D70009A466CE74346FF35002B0BD102234A46C7
:100D80001A4391469C4678E753463100022B00D027
:100D900083E792E703234A461A4391469C466CE751
:100DA0000C239946093BFF259A4650E7200002F0A4
:100DB00085F97625431F9C4000236D4299469A464B
:100DC0002D1A44E7404602F079F94246431F9A4003
:100DD00000232D1A90469C46763D4EE78024002144
:100DE000FF20E40360E701239B1A1B2B00DD59E77A
:100DF00022009E30DA4084401300621E94411C435E
:100E0000630704D00F232340042B00D00434630174
:100E10001AD50120002447E78020C003044209D0EE
:100E20004346034206D14446044364023900FF208E
:100E3000640A39E78020C003044364023100FF20C4
:100E4000640A31E7280065E7A4010020640A2BE763
:100E50008020C00304436402FF20640A24E7C046E4
:100E600000A80008FFFFFFF7F8B5CE46474643024B
:100E70005B0A4E02DA009446720A914645004A0027
:100E800080B52D0E1F00C40F120EC90FB609FF2A20
:100E90005BD0012041408C4239D0A81A00285ADD8D
:100EA000002A6AD0FF2D00D1D9E08022D204164357
:100EB0001B2800DCE9E001206346181A430100D436
:100EC000B4E080018709380002F0F8F8053887405F
:100ED000854200DCCCE02D1AB5483840430704D0E9
:100EE0000F230340042B00D00430430100D4A0E0C2
:100EF0006A1CFE2D00D18DE08001470AD2B2D005D8
:100F00003843E4072043C0BCB946B046F8BDA81A30
:100F10008046002845DD002A70D0FF2D00D19EE0DC
:100F20008023DB041E4343461B2B00DCD2E0012060
:100F3000604443017AD50135FF2D6BD001239D4AD2
:100F40000340400810401843C8E7002E20D08C42D0
:100F500023D02800FF38002839D0571B002D00D09F
:100F60009DE06346002B00D1DBE07B1E012F00D10A
:100F70000DE1FF2F71D01F0098E0002E00D1A7E0F7
:100F8000421E012800D1E6E0FF2868D010008FE75C
:100F900001204140A14200D07FE7FF20404280462F
:100FA000A8444046002838D0511B002D00D1AEE0A7
:100FB000FF2A00D1DFE080236046DB04184384462B
:100FC0001B2900DCD9E0012015008019B1E7FE20C3
:100FD0006A1C104271D1002D00D0A6E06346002BA0
:100FE00000D1D9E00022002E00D188E7981B4301F0
:100FF00000D4E1E063460C00F01A6FE7002E00D148
:10100000B7E00200013A012800D19CE0FF2826D079
:10101000904688E7FF22002771E7FE206A1C1042F5
:1010200064D0FF2AF6D0150066447008430700D04C
:1010300056E7C308FF2D12D05B025F0AEAB25EE7F3
:101040006246002A00D196E0002E08D08022D2030A
:10105000134204D04846104201D10C004B46002BED
:10106000D8D08027FF031F437F02FF227F0A46E775
:1010700020233A00451B38000135EA405D1BA8409B
:10108000431E98410025104328E720231B1A3200F5
:101090009E40C2403000431E984110430CE7FF2A97
:1010A000DBD080236046DB04184384461B2F56DDCB
:1010B00001200C001500301A00E763469F1B7B01DE
:1010C0003DD4002F00D0FEE600240022002716E7C2
:1010D0000500AFE7320043464146DA4020235B1A61
:1010E0009E403000431E9841104321E7002DA7D1B8
:1010F0006346002B59D00022002E00D1FFE63000BD
:101100006044430192D52A4B013518408EE763466F
:10111000002B47D04B1E012915D0FF292BD01900D9
:101120004EE70C004B463D0084E76246002A8BD117
:10113000002E92D180270024FF22FF03DFE66346C2
:101140000C00F71ABFE6300060440125430100D4CB
:101150006CE70225F2E663460125981BAEE62023E4
:1011600064466046FC40DF1BB840431E9841204364
:101170009FE705005EE74B4671E720236546604622
:10118000CD40591A8840431E984128431CE76346C6
:101190000C000125F01A91E6002E95D00C004F4668
:1011A0000022ACE64B460D0044E74F460022A6E67F
:1011B000FFFFFFFBFFFFFF7D002800D036E7002484
:1011C00000279CE643024A02400049005B0A520A9B
:1011D000090E000EFF2806D00020FF2902D1531E61
:1011E0009A4110007047FE38002BFBD1F4E7C0464F
:1011F00041024200C30F490A0020120E7E2A03DD7D
:101200009D2A02DD094A9818704780200004014396
:10121000952A07DC9620821AD1404842002BF3D150
:101220000800F1E7963A9140F7E7C046FFFFFF7FDD
:10123000F8B5002813D0C317C6185E40C40F30009D
:1012400001F03CFF9E2305001B1A962B0FDC08289B
:1012500001DD083DAE407602760AD8B202E00024F5
:1012600000200026C0053043E4072043F8BD992B39
:101270000CDD05223100121AD1400A0001003000B5
:101280001B318840411E884102431600052D12DCA7
:1012900031000D4F3940720709D00F20304004282B
:1012A00005D004314A0102D59F2339405B1B8901D7
:1012B0004E0AD8B2D6E76A1F96403100024F394035
:1012C0007207F4D0E9E7C046FFFFFFFB70B5051ECB
:1012D0000ED001F0F3FE9E2304001B1A962B0CDCAB
:1012E000082801DD083CA5406D026D0AD8B201E076
:1012F00000200025C005284370BD992B09DD0200A0
:1013000029001B3291404A1E91410522121AD540F4
:101310000D43052C12DC29000C4E31406A0709D020
:101320000F202840042805D004314A0102D59F230C
:1013300031401B1B89014D0AD8B2DBE7621F954083
:101340002900024E31406A07F4D0E9E7FFFFFFFBB6
:10135000F0B54F464646D6460D000400C0B51F0006
:1013600011002803620F400A10437A00520DE30077
:101370003C039146640AFA0F4F0F6E0027439246D2
:10138000B846760DED0FC900954200D199E04C4664
:10139000341BA446002C00DC7CE04A46002A00D125
:1013A000B8E0C54A964200D11CE180223C001204FC
:1013B0001443A0466246382A00DD61E11F2A00DDA1
:1013C000CCE164462022121B444694400F00A14603
:1013D00064469140E7404C464A1E91413C43424698
:1013E00021436446E240801A5C1AA3429B415F425B
:1013F000C71B3B0200D4D0E07F027F0A002F00D140
:10140000FFE0380001F05AFE0100083920232200D5
:101410005B1A8F40DA408C401743B14200DAFFE09C
:10142000891B4B1C1F2B00DDA8E020223900D21A9B
:10143000200094409140D840621E9441DF40002635
:1014400001430C43630709D00F232340042B05D02D
:10145000231DA342A44164423F191C003B0200D457
:101460009EE0954B01369E4200D1B7E0934AE408D6
:1014700017407B0771057F0223433F0B4A0D12057E
:101480003A43ED072A4318001100E0BCBA46B146C2
:10149000A846F0BD002C4BD04C46A41BA446002E01
:1014A00000D023E104001C4300D1AFE16246541E8A
:1014B000012A00D115E2804DAC4500D1C8E1A44617
:1014C0001BE14A46B21A9446002A00DCACE04A46C8
:1014D000002A43D0784A964200D1AFE180223C00F6
:1014E00012041443A0466246382A67DC1F2A00DC37
:1014F0005FE14746203AD7406246202A05D064463D
:101500004022121B4446944021434A1E91410C0044
:101510003C4357E03A000A4300D105E12200013A7A
:10152000012C00D182E1644CA4455BD0944641E794
:10153000634C771C274200D0C4E004001C43002EFB
:1015400000D069E1002C00D1BFE144460C4300D03B
:10155000D0E14207DB081343C00829E03A000A4300
:1015600000D170E162466446013A012C00D1E0E00E
:10157000514CA44500D161E19446B4E73A001F39CB
:10158000CA401100202B03D04022D31A9F403C4375
:10159000631E9C41002700260C43630700D053E7DD
:1015A000B446E4087B072343F808434A94451DD01A
:1015B0006246070352053F0B520D60E744460C4359
:1015C000621E9441E4189C429B415F423F183B02DB
:1015D000E3D5394B01369E4200D0B5E032000027FA
:1015E00000234CE74207DB081343C0081A000243FC
:1015F00000D1E1E180273F0307433F032E4A3F0B21
:101600003DE7200001F05AFD010018311F2900DCE0
:10161000FCE60838844027000024B14200DBFFE6E6
:10162000264A761A17400DE7002A2FD04A46921B09
:101630009446002E00D1ADE01F4A914500D10FE144
:101640008022120410436246382A00DD0FE11F2A6F
:1016500000DD80E1644620221E00121B6746040064
:1016600093409440FE405A1E9341F84034431C433B
:10167000804464188C42BF417F424E464744A6E7EF
:1016800042460A4311004A1E9141ADE60C4C721CC1
:10169000224200D0A1E002001A43002E00D0FAE05E
:1016A000002A00D145E13A000A4300D046E1420752
:1016B000DB081343C0087BE7FF070000FFFF7FFF45
:1016C000FE07000047465C1AC21BA342BF417F428F
:1016D000B94617004A46BF1A3A0200D58DE02300EA
:1016E0003B4300D08AE60020002561E7B44CA145C9
:1016F00000D1ADE08024240420436446382C3DDC36
:1017000062461F2C00DDB7E020251E002D1B0400C3
:10171000AB40AC40D640D04042465D1EAB41344366
:10172000121A904623432CE04207DB081343C008FB
:101730003BE75C189C429B4140445B42C718012632
:101740003B0200D429E702269E4A63081740012283
:1017500014401C43FB071C437F0873E64446203AB1
:10176000D4406246202A05D067464022D21B474615
:10177000974039434A1E9141214335E60343581EA1
:101780008341CC1AA142BF4143467F4255464E4653
:10179000DF1B2EE602001A4300D1BDE0624664461C
:1017A000013A012C00D1E5E0854CA44558D094467F
:1017B00049E764462022121B444694400F00A1468C
:1017C00064469140E7404C464A1E91413C434246A4
:1017D0000C436146CA408018F4E6794CA24200D11D
:1017E000FDE6591899429B4140445F42C719FC07E6
:1017F000490816000C437F08CFE6CC1AA142BF412E
:1018000043467F42181A5546C71BF7E5C9087B07B0
:1018100055460B43F808C8E6002C00D081E043464B
:101820000B4315D1802000250003E3E65C1AA34298
:101830009B41C71B5B420126FF1ADAE54207DB0822
:101840001343C008D2E64207DB081343C008ACE6E6
:1018500043464246C9085B0755460B43D008C5E6D8
:10186000434642465B07C9080B43D008BEE6034324
:101870001C00631E9C41FCE60200203CE240140078
:101880006246202A03D04025AD1AA8400343581EC3
:101890008341234375E7002AE2D03A000A43CDD0C2
:1018A0004207DB0813438022C0081203104206D00F
:1018B000FC08144203D12000CB087A0713435A0FC7
:1018C000DB005207DB08134390E643460B4300D18D
:1018D00009E743464246C9085B0755460B43D00813
:1018E00066E6CC1AA14289413F1A49425546012673
:1018F0007F1A7EE542465C1A871AA3429241524201
:10190000BF1A3A023DD5CC1AA14289414346494209
:101910001F1A55467F1A95E57B07C9080B43F8083F
:1019200043E64446DB080C4330D142071343C0086A
:101930005CE67B07C9080B43F80839E65C189C4253
:101940009B4140445B42C7183B0200D425E61D4B37
:1019500001261F4021E60400203AD4406246202A96
:1019600004D040226646921B904003435A1E934186
:101970001C437EE65C188C4289414044494247182A
:10198000DDE623003B4300D1ADE606E644072343F2
:101990008024C0082403204208D04246D6082642AC
:1019A00004D155463000CB0851070B435A0FDB00DA
:1019B000DB085207134319E60023014A1F005EE5C6
:1019C000FF070000FFFF7FFFF0B557464E46454634
:1019D000DE46E0B5814605000C03480092461F0034
:1019E00085B0240B400DCE0F002800D156E1D44B1A
:1019F000984200D172E16B0FE4001C4380231B046A
:101A000023439846CF4BED009B46002399468344E1
:101A100000933C037B005046240B5B0DFF0F002B13
:101A200000D11FE1C64A934200D162E1C549420F8D
:101A30008C46E40059461443802263441204CB1AB6
:101A400014439B46C200002033007B409A464B461D
:101A50000F2B27D8BC499B00CB589F46B246009B12
:101A6000022B16D0032B00D18EE2012B00D0D9E03F
:101A700000230024002552461B052343D2071343AD
:101A80002800190005B0F0BCBB46B246A946A046E6
:101A9000F0BD00240025AA4BEDE7BA46A04615008C
:101AA0000090DCE7444500D2C7E100D1C2E1012348
:101AB0005B429C462E0040460025E3442302140E60
:101AC0001C431B0C994623041F0C1202494600922A
:101AD0000197FEF79FFB02007A430B04310C80460E
:101AE00019438A4207D901235B429C460919E04405
:101AF0008C4200D807E2881A4946FEF78BFB09049E
:101B00008C4631046646019A090C42430300314376
:101B10008A4204D90919013B8C4200D8EDE1881AA8
:101B2000424612041A4390464146009B0E041B0C89
:101B30001F000293009B360C1B04190C0B0073430F
:101B4000120C7E43039151437A431F0CBC46761816
:101B50006644B14203D9802149028C466244310C6B
:101B60008A1831041E04360C8E19904202D312D109
:101B7000B54210D24346591E009B9C4665441F0047
:101B80009D429B415B421B19C018844200D2A0E1D8
:101B900000D19BE18846AE1BB542AD41801A6D4233
:101BA000401B844200D1D5E14946FEF733FB019A40
:101BB0000B044243310C050019438A4200D96CE101
:101BC000881A4946FEF726FB019A36044243090467
:101BD000360C03000E43B24200D953E10398B61A03
:101BE00002002D041D43029F2B041B0C5A437B4310
:101BF0009C46290C4843130C84446344794398421F
:101C000003D98020400284466144180C12041B044E
:101C1000120C41189B188E4200D2FFE000D1FAE06E
:101C200001231D43494A5A44002A00DCAAE06B07FD
:101C300000D03DE1ED084346DB0106D54246444B6A
:101C40001A4090468022D2005A44424B9A4200DD0C
:101C50001FE743465B071D43434652055C02240BC6
:101C6000530D08E75246224300D17BE0002C00D1FF
:101C7000FAE0200001F022FA02000B3A1D230100D5
:101C80009B1A52460839DA408C40144352468A4027
:101C9000314B58449B4683440020D5E64B462343B2
:101CA000984644D0002C00D1CEE0200001F006FA86
:101CB000010002000B391D235B1A49461000D94070
:101CC000083884400B004D462343984685402348FE
:101CD000831A9B460023994600939AE64B4623437A
:101CE00098461DD108239946063B0025834600935C
:101CF0008FE65246224309D1022349461943184B25
:101D000089469C4600240220E3449DE603234A467C
:101D10001A43134B91469C4652460320E34493E6F4
:101D20000C239946093BA0468346009371E60423A1
:101D3000994600239B4601330025009369E6C0467F
:101D4000FF07000001FCFFFF40A80008FF030000A0
:101D5000FFFFFFFEFE070000F30300000DFCFFFF86
:101D600001F8FFFF49460123194389460024012059
:101D70006AE6002380249A4600258A4B24037AE6EB
:101D800001256D4201239B1A382B00DD70E61F2BC5
:101D900000DCBFE01F2149428A1A4146D1400A00B7
:101DA000202B04D04146804B5B4499400D436B1E71
:101DB0009D4107232A431D0000241540134200D1F2
:101DC000D4E00F2100231140042900D1CBE0111DE4
:101DD0009142924152429B180A00190200D4C2E07B
:101DE00001230024002546E6802341461B031942B7
:101DF00008D01C4206D11C432403BA461500694B87
:101E0000240B38E68024434624031C432403B246B3
:101E1000644B240B2FE6002B00D103E7A619681EA4
:101E2000A64200D28DE08E4200D2A3E000D1B3E002
:101E30000500F5E6AA4200D939E64346DE07580810
:101E40006B081E43ED0739E6484601F037F90100FB
:101E50000200153120321C2900DC2CE74B460838E3
:101E600083400025984632E701F028F903001A0064
:101E7000153220301C2A00DC00E75446083B0022C3
:101E80009C4005E73619013BB44200D9A6E6B242B0
:101E900000D8A3E6831E3619A0E60919013D8C423D
:101EA00000D98DE68A4200D88AE6851E091987E6A0
:101EB0000F232B40042B00D1BCE605235B42AB4231
:101EC0009B4104355B42ED089844B4E6AF4200D92B
:101ED00060E6824204D800D05CE6AE4200D859E603
:101EE00002235B429C46009BE0449C4665449D4225
:101EF0009B415B421B19C0184DE68A4200D80EE692
:101F0000831E09190BE68A4200D8F4E5831E984621
:101F10000919F0E52549280059448D4042468A4078
:101F2000691E8D414146D840D94002432A430B00E7
:101F3000510700D151E70F211140042900D046E795
:101F40004BE705008E4200D06AE6009A934200D02B
:101F500066E667E6164A5A44002A00DC10E70123C9
:101F60000025984467E65D075B021C0BD20800233E
:101F7000154380E50098023D42008242BF417F4206
:101F80003C1936190092DDE78024434624031C43A4
:101F90002403044B240B6EE5009A9A42EAD3050011
:101FA000D3E7C046FF0700003E0400001E04000007
:101FB000FF030000F0B54E464546DE4657469046C4
:101FC000E0B517001A03120B0500844619480E03EA
:101FD0004C0091465A00DB0F9B46360B640DC90F2F
:101FE000520D844219D0824210D0012094420ED169
:101FF0004E450CD10120C44509D1594517D0002CBC
:1020000005D130002843431E984100E00120F0BC78
:10201000BB46B246A946A046F0BD330001202B4383
:10202000F5D1A242F3D14B463B43F0D1E2E7002089
:10203000EDE7C046FF070000F0B54746CE46040076
:10204000180016001B031B0B2D4D4A00994680B546
:1020500043000F03A446B0463F0B520DC90F5B0D62
:10206000C00FAA4221D0AB4213D0002A22D13C4358
:10207000002B02D14D462E4322D0002C10D081429D
:1020800022D00220013908400138C0BCB946B04610
:10209000F0BD4D462E4329D1002AF0D13C43EED16C
:1020A0000028F2D101204042EFE73D0025431DD139
:1020B0009342EED0002BE2D14C462643DFD1E0E73D
:1020C0000020002CE1D0DCE79A420ADCE8DB4F4537
:1020D000D7D80ED000204F45D7D20029E2D0080033
:1020E000D3E74342584140000138CEE70220404246
:1020F000CBE7C445C5D80020C445C6D2EDE7C046ED
:10210000FF070000F0B54746CE4604001800160051
:102110001B031B0B2C4D4A00994680B543000F034F
:10212000A446B0463F0B520DC90F5B0DC00FAA422B
:102130000DD0AB4210D0002A27D13C43002B11D147
:102140004D462E430ED10020002C15D00EE03D0050
:10215000254310D1934218D14D462E430BD1002A6E
:1021600002D13C43002C0BD0814214D00220013913
:102170000840013800E00220C0BCB946B046F0BDBE
:102180000028F9D101204042F6E7002BECD14C4663
:102190002643E9D1EAE79A4204DD43425841400030
:1021A0000138E9E79A42EBDB4F45DFD806D0002043
:1021B0004F45E1D20029E5D00800DDE7C445D5D878
:1021C0000020C445D8D2F5E7FF070000F0B5574618
:1021D0004E464546DE46E0B598460C034B000600E9
:1021E000924687B0240B5B0DCF0F002B00D15CE132
:1021F000D94A934200D175E1420FE4001443802292
:1022000012041443D54AC500944663440093002346
:1022100099469B46434642461E03D20F5B005046FA
:102220009046360B5B0D00D120E1CB4A934200D1A2
:1022300062E1CA49420F8C4600996344F6008C461D
:10224000164380229C44120463461643C2000020B9
:1022500000930099434601318C4649467B400193E7
:102260000F2926D8BE4B890059588F464346019303
:102270003400150083465B46022B16D0032B00D199
:1022800003E2012B00D0CDE0002200240025019BB9
:1022900012052243DB071A432800110007B0F0BCE7
:1022A000BB46B246A946A046F0BD00240025AA4A76
:1022B000EDE7280C2D042D0C2B00110C1204120C30
:1022C0005343984613002F00434399464F434F44CE
:1022D000BB4647460B003F0CBA464343DA440293E1
:1022E000D14504D980277F02B9464B440293534617
:1022F0001B0C9B4653461F0443461B041B0C98466D
:102300003B0043440493330C3604360C98463300A8
:1023100043439946434643432F009A4643467743F7
:102320005D43380C4D444519A94503D980235B0210
:102330009946CA443F04280C3F0C2D04ED19270C84
:102340002404240C0300200050437A4391463A00B1
:1023500053440593030C9A464A436143494451440C
:10236000AB44894503D980235B0299464A44000463
:102370000B0C000C090409182000994643467043D1
:102380005C437E435F43030C9846A41944444A448B
:102390000397A64204D980235B02984647440397DB
:1023A0002304029E9A46059B5E449846AE42AD4188
:1023B00076188E4289410004000C504440446D421E
:1023C0004719B846934649428946C344D94498427E
:1023D0008041A845AD4193459241894589416D426F
:1023E00040422843240C524249420A43039B0019AD
:1023F0008018C7184B46DC0D049B75021D436A1EEE
:1024000095414B46F60D7F0235435A023C43154336
:10241000FB0100D41CE101216A080D401543E207CD
:10242000154364084F496144002900DCB0E06B07A4
:1024300009D00F222A40042A05D02A1DAA42AD4104
:102440006D4264191500E30104D58021464AC90094
:1024500014406144454A914200DD26E76207ED08D9
:10246000640249051543240B4A0D10E752463243D6
:1024700000D17FE0002E00D1DCE0300000F01EFE35
:1024800002000B3A1D2301009B1A52460839DA401C
:102490008E40164352468A40009B3549181A030065
:1024A0008C46634400200093D3E6250005434AD0C0
:1024B000002C00D1B0E0200000F000FE010002007E
:1024C0000B391D2310005B1A310035000838844099
:1024D000D94085400C432648831A0093002399462F
:1024E0009B4697E60500254326D108220093022348
:1024F000002491469B468DE65246009B324310D104
:10250000154900268C46634449460093022319432B
:10251000894602209DE65B460197022B00D0ADE67E
:10252000C3E60D4A0320944663444A4600930323BE
:102530001A43914652468CE60C2200930323050071
:1025400091469B4666E60423994600230093013397
:1025500000249B465EE6C046FF07000001FCFFFF2B
:1025600080A80008FF030000FFFFFFFEFE07000039
:102570000DFCFFFF4946012319438946002601202F
:1025800067E6002380240025434A019324037EE666
:102590000120401A382800DD76E61F285BDD1F2267
:1025A00023005242511ACB401900202803D03B4A45
:1025B0006244944025436A1E95412A000A4307213C
:1025C0000D000024154011425BD00F210024114062
:1025D000042953D0111D914292415242A4180A007D
:1025E00023024BD501220024002550E680231B0343
:1025F0001C4209D01E4207D133431C034346150039
:10260000240B254A019342E680221203144324033B
:10261000214A240B01973AE600F050FD0100020028
:10262000153120321C2900DC4BE734000838002526
:10263000844050E700F042FD03001A0015322030BC
:102640001C2A00DC1EE75646083B00229E4023E77A
:10265000009B9C46E6E61249220061442E008D4014
:102660008A40C640691E8D4132432A43C440530705
:10267000B6D00F2111400429ACD1B1E7650764023F
:10268000240BD2081543002201E6802212031443D2
:102690002403014A240BFAE5FF0700003E04000072
:1026A0001E040000F8B557464E464546DE46E0B5E6
:1026B0001E0017004A000B03520D5B0A9046420FA2
:1026C0001A43CD0FCD4C3103C300944670007A0FEE
:1026D000490AFF009A46B946400DF60F1143A04241
:1026E00000D1B1E001225640B346B54200D188E0A6
:1026F0004246121A002A00DCAEE0002800D1C1E0F8
:10270000BE48804500D151E1802000040143382AB1
:1027100000DD7BE11F2A00DDEEE120203E00801A73
:102720000C00D640D140874062468440521A781E41
:102730008741944634432743DC1BA3429B416246B6
:102740005B42D31A99464B461B0200D418E14B4614
:102750005802430A99464B46002B00D137E14846C0
:1027600000F0ACFC010008392023220048465B1A27
:10277000DA4088408C4043461043884500DD36E10E
:10278000C91A4B1C1F2B00DDEAE020222600D21ABA
:1027900001009440DE40D84000239140621E9441E5
:1027A0008146984631430C43630709D00F232340E9
:1027B000042B05D0231DA342A4416442A1441C0064
:1027C0004B461B0200D4DEE041468C4B013199425E
:1027D00000D1E7E04B468A48E40803401800490569
:1027E0005B07400223434A0D040B1205ED07224309
:1027F0002A4318001100F0BCBB46B246A946A046C9
:10280000F8BD4246121A002A52DD002800D19CE091
:10281000A04500D1CAE0802000040143382A00DD31
:1028200049E11F2A00DC97E110000E002038C64065
:10283000202A04D04020821A91400F43B9464C46CA
:10284000621E944134433AE10A003A4328D0B34629
:10285000B5422BD06B4A4244002A5DD042464446E2
:10286000821A002C00D0F5E065461D4300D19CE1A2
:10287000551E012A00D1FBE1604CA24200D1BDE10E
:102880002A00F0E00800384300D1C3E0501E012ABE
:1028900000D1A8E1594CA24200D187E0020036E7FE
:1028A00001225640B346B54200D021E7554A424482
:1028B000002A00D1B5E042464446821A002C00D1DD
:1028C00038E14E4EB04200D1DEE180266446360447
:1028D0003443A446382A00DD96E11F2A00DD24E2B5
:1028E0002026B41AA24664465646B440A1461C00AF
:1028F0004E46D440264334005646B3405E1EB34194
:102900001C436346D340C918E419BC42BF417F420F
:10291000B94680468944D8E040463B4C01302042CD
:1029200000D0B4E04046002800D044E1604618439F
:1029300000D190E10800384300D0AAE16146DB08ED
:1029400049070B436146CC0827E00800384361D0B3
:10295000501E012A00D139E1A24227D002005DE7D2
:1029600002001F39CA401100202B03D04022D31A85
:1029700098400443631E9C410023994698460C43AB
:10298000630700D012E74B464A46E4085B0723433F
:10299000D408424619498A420ED024035205240B1A
:1029A000520D22E70A00002400231EE7DB086246DE
:1029B000520713436246D4081A00224300D1FCE1B7
:1029C00080221203144324030C4A240B0DE7200039
:1029D00000F074FB010018311F2900DCC4E6083840
:1029E0008440434620000024884500DCC8E6044AB1
:1029F0005B1A104098468146D6E6C046FF070000A5
:102A0000FFFF7FFF01F8FFFFFE0700000F437A1E64
:102A1000974191E66146DB0849070B436146CC08C4
:102A2000B8E74046D34C0130204200D0A2E04046F7
:102A3000002800D001E16046184300D15EE10800A3
:102A4000384300D05FE16146DB0849070B4361462C
:102A5000CC08A2E7C84DA84200D1CFE0802564464B
:102A60002D042C43A446382A56DC1F2A00DDD1E071
:102A700020251E00AD1A6446AB40AC40D6405D1E1A
:102A8000AB41344323436446D440091B49E06046CC
:102A9000DC1B461AA34280414042814630004E462C
:102AA000801B8146000276D44B46234300D052E679
:102AB0000024002571E739430C00621E9441E4189C
:102AC0009C429B415B42634499464B461B0200D4A7
:102AD00056E701239C46A84BE044984538D04B4626
:102AE000A648012203401800630814401C43C30792
:102AF0001C434308994657E610000E002038C64094
:102B0000202A04D04020821A91400F43B9464F46F4
:102B10007A1E974137430FE662461A4313005A1E46
:102B20009341FC1AA742BF417F42CB1B99465D46A9
:102B3000804608E666461E4300D1BEE0561E012AC6
:102B400000D109E18C4CA24200D119E13200C1E66A
:102B500042460024002348E620200C00801A3E0054
:102B600087408440D640781E8741D14034433C435F
:102B70008C44A4E7804A904200D1E9E0DF199F42EB
:102B80009B4161445B42C918CC077F084B089946BA
:102B900080463C43F4E6FC1AA742BF4163467F42AD
:102BA000C91ACB1B99465D46D5E5FF084B075D4624
:102BB0003B43CC08EEE662461A4300D082E00B00AD
:102BC0003B431BD1802400252403F9E6DC199C42F9
:102BD0009B41614489465B4299444B461B0244D465
:102BE00001239846CCE6DC1B6246A3429B41511A66
:102BF0005B42CB1A994601239846A4E5FF084B0790
:102C00005D463B43CC08D7E662461A431400631E78
:102C10009C4179E615006446203DEC40A046202A00
:102C200005D040256446AA1A944023439A46544648
:102C3000631E9C414346234373E762461A4323D0F5
:102C40000A003A4300D0A0E06246DB085207134373
:102C50006246D408B0E60B003B4300D128E7FF08EA
:102C60004B075D463B43CC0897E60223984636E780
:102C7000FC1AA742BF4163467F42C91ACB1B994643
:102C800001235D4698465EE54B07FF083B43CC08B1
:102C900092E6DC1B6046A342B641401A7642801B96
:102CA0008146000260D5FC1AA742BF4163467F42BD
:102CB000C91ACB1B99465D4676E5FF084B073B4397
:102CC000CC0867E60A00DB083A4300D16FE66246AB
:102CD000520713436246D40880221203144207D0DD
:102CE000C808104204D15D460400FB0849070B43A5
:102CF0005A0FDB00DB08520713435DE64B07FF0862
:102D00003B43CC0849E6DC199C429B41614489461F
:102D10005B4299444B461B0200D431E64A46174BAE
:102D20001A400123914698462AE616006446203E42
:102D3000F440A046202A05D040266446B21A9440AA
:102D400023439A465446631E9C4143461C43DBE59D
:102D500002000024002348E5DC19BC42BF41614465
:102D600089467F42B94438E74B46234300D19FE66A
:102D700006E6C046FE070000FF070000FFFF7FFFDA
:102D8000FF084B073B43CC0816E66246DB085207B8
:102D900013436246D40880221203144207D0C808A5
:102DA000104204D15D460400FB0849070B435A0F4B
:102DB000DB005207DB081343FEE50023014A1C0039
:102DC00013E5C046FF07000070B505000C481C0362
:102DD00016005B000A034900120B490D240B5B0D22
:102DE000814208D0064A0020934203D1200030439C
:102DF000431E984170BD01202A43FBD1F2E7C04633
:102E0000FF0700000A0030B5134C5300090305000A
:102E1000090B00205B0DD20FA34204DD0F48834253
:102E200002DD0F4BD01830BD8020400301430D4818
:102E3000C01A1F2808DD0C48C31AD9400B0058429D
:102E4000002AF0D11800EEE7084CC540A4466344C0
:102E500099400B002B43F2E7FE0300001D04000025
:102E6000FFFFFF7F3304000013040000EDFBFFFFB2
:102E700070B5002816D0C317C5185D40C40F2800D0
:102E800000F01CF9114A121A0A2816DC03002E0061
:102E900015339E400B23181AC54052052D032D0BE8
:102EA000530D03E000240023002500261B052B43BF
:102EB000E40723433000190070BD0B3885405205EC
:102EC0002D0300262D0B530DF0E7C0461E04000015
:102ED00010B5041E10D000F0F1F80F4B1B1A0A2891
:102EE00011DC0B222100121AD14015300A035B05B8
:102EF0008440120B5B0D01E0002300221B051343ED
:102F00002000190010BD22000B3882405B0512031F
:102F10000024120B5B0DF1E71E04000070B54300A6
:102F20004602C40FFE201B0E591C750A08420CD025
:102F3000E022920094466D07360B63441B05334331
:102F4000E40723432800190070BD002B14D1002D85
:102F50001BD0280000F0B2F80A281CDC0B232E003E
:102F60001B1ADE40030015339D400E4A3603121A29
:102F70005205360B530DE1E7002D09D08022360BA8
:102F80001203094B6D071643D8E700230026D5E747
:102F90000026054BD2E703000B3B9D402E00002589
:102FA000E3E7C04689030000FF07000002004B0072
:102FB000F0B55B0D0C033D4E640A400F5F1CC90F5A
:102FC0000443D50037420AD039481E18FE2E16DDBC
:102FD000FF200024C0052043C9070843F0BD002B93
:102FE00006D12C4326D005229201540AD8B2F1E72B
:102FF0002543EDD08020C0030443FF20EAE7002EE4
:103000001BDD9201531E9A41E4006D0F22432A43B7
:10301000530748D00F231340042B00D004328023E1
:10302000DB0413403FD0701CFE2ED1D09201540A15
:10303000C0B2CFE700200024CCE73200173222DBF9
:103040008020000420431E24A41B1F2C1DDD02220F
:103050005242961B0200F2401600202C04D0154A62
:1030600094466344984005432A00531E9A413243D4
:1030700000265307CED180241300E404012023400E
:103080002242D3D1B0E70023ADE70B4A94462A0091
:10309000E24014002A0063449A409840551EAA4119
:1030A00002432243E4E733009EE7C046FE070000E8
:1030B00080FCFFFFA2FCFFFF82FCFFFF1C2101231D
:1030C0001B04984201D3000C10391B0A984201D30B
:1030D000000A08391B09984201D30009043902A2E9
:1030E000105C40187047C046040302020101010150
:1030F0000000000000000000B0B586B002AF040080
:10310000080011003B60FB1D221C1A70BB1D021C35
:103110001A707B1D0A1C1A702023FB181C880E25B0
:103120007A19BB1D1978FB1D18787B6A0093230060
:1031300000F01AF803001A000F217B181A707B1D8B
:103140001B7801229A4013005BB27A19127852B2AE
:1031500013405BB2DAB23B681A707B181B785BB223
:103160001800BD4604B0B0BD90B585B002AF0400F4
:1031700008003A601900FB1D221C1A70BB1D021CBE
:103180001A703B1D0A1C1A803A68BB1D1978FB1D7A
:103190001878BB6901933B1D1B8800931300012223
:1031A00000F006F803001800BD4603B090BD000013
:1031B000B0B586B002AF0400080011003B60FB1DF3
:1031C000221C1A70BB1D021C1A707B1D0A1C1A706F
:1031D0000C203B18BA1D12781A70FB1D1B7899B28F
:1031E00020257B191B883A180C480093012304F012
:1031F000F7F9FB1D1B7899B27B1D1B789CB27B19DC
:103200001B883A6805480093230004F0F1FA7B1DFF
:103210001B785BB21800BD4604B0B0BDE8010020C9
:10322000B0B586B002AF05000C0010001900FB1D00
:103230002A1C1A70BB1D221C1A707B1D021C1A70DE
:103240003B1D0A1C1A701F4B1C880F257A19BB1DC9
:103250001978FB1D18783B6A00932300FFF784FF61
:103260003B1D1B78002B0CD07B1D1B7801229A4044
:1032700013005AB27B191B785BB213435BB2DBB20B
:103280000EE07B1D1B7801229A4013005BB2DB43EA
:103290005BB20F22BA18127852B213405BB2DBB2A3
:1032A0000F217A1813707B181A783C6ABB1D1978A5
:1032B000FB1D1878230000F079F803001800BD46C4
:1032C00004B0B0BD00000020B0B586B002AF05006C
:1032D0000C0010001900FB1D2A1C1A70BB1D221CBB
:1032E0001A707B1D021C1A703B1D0A1C1A702E4B93
:1032F0001C880E257A19BB1D1978FB1D18787B6A6E
:1033000000932300FFF730FF03005A1E9341DBB206
:10331000002B43D03B1D1B7801229A4013005A1EFC
:103320007B1D19783B1D1B78CB1A01339A400F2463
:103330003B191A7020203B181A787B1D19783B1D09
:103340001B78CB1A01339A403B181A703B183A1875
:103350003919127809780A401A703B191B785BB248
:10336000DB435BB27A19127852B213405BB2DAB225
:103370007B191A707B191A783B181B781343DAB241
:103380007B191A707B191A787C6ABB1D1978FB1D92
:103390001878230000F00AF8030000E0002318006A
:1033A000BD4604B0B0BDC0460000002090B585B059
:1033B00002AF0400080011003B60FB1D221C1A70C4
:1033C000BB1D021C1A707B1D0A1C1A707A1DBB1DC6
:1033D0001978FB1D18783B6800931300012200F058
:1033E00005F803001800BD4603B090BD90B589B044
:1033F00004AF0400080011003B60FB1D221C1A7082
:10340000BB1D021C1A707B1D0A1C1A70FB1D1B7849
:1034100099B2BB1D1B789CB27B1D1B789BB20C48DC
:1034200001225242029201933B6800930123220041
:1034300004F0E6FA0F217B1800221A707B181B7823
:103440005A425341DBB21800BD4605B090BDC0469C
:10345000E801002080B584B000AFF8607A600B20EE
:103460003B180A1C1A70FB683A1812781A70FB682D
:103470007A685A60FB68034A9A61FB681800BD4687
:1034800004B080BDF82A000080B582B000AF78603B
:103490007B680121180000F0DEF87B68002118002D
:1034A00000F04BF97B680021180000F009F87B68F8
:1034B0000021180000F01CF8C046BD4602B080BDD7
:1034C00080B584B002AF78600A00FB1C1A707B687C
:1034D00018787B685B680193FB1C1B7800930223C0
:1034E00004221C21FFF7F0FEC046BD4602B080BD9D
:1034F00080B584B002AF78600A00FB1C1A707B684C
:103500001878FB1C1A787B685B680093130006220E
:103510006B21FFF785FEC046BD4602B080BD90B569
:1035200083B000AF78600C0010001900FB1C221C57
:103530001A70BB1C021C1A707B1C0A1C1A70FB1C24
:10354000FA1C12781F210A401A707B1C1B78002B72
:1035500005D0FB1CFA1C127820210A431A70BB1CF0
:103560001B78002B05D0FB1CFA1C127840210A4363
:103570001A707B6818787B685968FB1C1A780B00F6
:103580006D21FFF713FFC046BD4603B090BD80B567
:1035900082B000AF78600A00FB1C1A707B68187854
:1035A0007B685968FB1C1A780B006E21FFF7FEFE42
:1035B000C046BD4602B080BD90B583B000AF786014
:1035C00008001100FB1C021C1A70BB1C0A1C1A709C
:1035D000FB1C1B78032B11D87B681878FB1C1B780D
:1035E0001A1C9218D318DBB22533D9B27B685C68F9
:1035F000BB1C1A782300FFF7D9FE00E0C046BD4689
:1036000003B090BD80B584B002AF78600A00FB1CA7
:103610001A707B681878FB1C1A787B685B680093CB
:10362000130005226A21FFF7FBFDC046BD4602B02C
:1036300080BD80B584B002AF78607B6818787B6805
:103640005B680093012301226A21FFF7E9FDC04670
:10365000BD4602B080BD80B584B002AF78600A007C
:10366000FB1C1A707B6818787B685B680193FB1CF5
:103670001B780093032302226B21FFF725FEC0462F
:10368000BD4602B080BD80B582B000AF78600A0050
:10369000FB1C1A707B6818787B685968FB1C1A78C9
:1036A0000B003821FFF782FEC046BD4602B080BD48
:1036B00080B582B000AF78600A00FB1C1A707B688E
:1036C00018787B685968FB1C1A780B001921FFF7E2
:1036D0006DFEC046BD4602B080BD80B584B002AF6D
:1036E00078600A00FB1C1A707B6818787B685B683E
:1036F0000193FB1C1B780093032305221A21FFF77B
:10370000E3FDC046BD4602B080BD80B584B002AFC7
:1037100078600A00FB1C1A707B6818787B685B680D
:103720000193FB1C1B780093032302221A21FFF74D
:10373000CBFDC046BD4602B080BD80B584B002AFAF
:1037400078600A00FB1C1A707B6818787B685B68DD
:103750000193FB1C1B780093022304221B21FFF71B
:10376000B3FDC046BD4602B080BD90B589B004AF80
:10377000F860B9601900BB1D1A807B1D0A1C1A7005
:103780007B1D1C78BB1D1A88B968F868002302935A
:103790002423FB181B7801932023FB181B7800932C
:1037A000230000F005F803001800BD4605B090BDE9
:1037B000F0B58BB002AFF860B9601900BB1D1A807C
:1037C0007B1D0A1C1A707B1D1978F86800230022E3
:1037D000FFF7A5FE282308229B1808229446BC4424
:1037E00063441A78FB6811001800FFF7D0FE00232D
:1037F0003B610023BB611623FB1800221A801624AC
:103800003A19BB1D12881B889A4200D38EE01F20F4
:103810003B1810221A703B191A883B181B78D218D3
:10382000BB1D1B889A4208DDBB1D1B88D9B23B1902
:103830001B88DAB23B188A1A1A701F203B181A78B4
:1038400028240825631908218C46BC4463441B784E
:1038500080214900CB1A9A4208DD3A1863190821E1
:103860008C46BC4463441B785B42137030230822AF
:103870009B1808229446BC4463441B78002B05D156
:103880001623FB181B88BA68D318BB61FB6818782D
:10389000FB685B68B9691F243A19127800930B0022
:1038A0006F21FFF7A3FD20003B181B7899B2162467
:1038B0003B193A1912888A181A8028250826AB194C
:1038C00008229446BC446344AA1908218C46BC448F
:1038D00062443818117802788A181A703A19BB1D98
:1038E00012881B889A428AD2AB1908229446BC449B
:1038F00063441B78002B04D17B1D1A787B1D013299
:103900001A707B1D1978F86800230022FFF707FE64
:10391000282308229B1808229446BC4463441A7842
:10392000FB6811001800FFF732FE68E72C2308221D
:103930009B1808229446BC4463441B78002B03D098
:103940003B69180006F0A0FE302308229B180822CD
:103950009446BC4463441B78002B03D0BB69180019
:1039600006F092FE01231800BD4609B0F0BD80B5F7
:1039700082B000AF78600A00FB1C1A707B68187870
:103980007B685968FB1C1A780B007021FFF70EFD4D
:10399000C046BD4602B080BD80B582B000AF786041
:1039A0000A00FB1C1A707B6818787B685968FB1C3E
:1039B0001A780B007121FFF7F9FCC046BD4602B032
:1039C00080BD80B584B002AF78600A00FB1C1A701D
:1039D0007B681878FB1C1A787B685B68009313007F
:1039E00000220021FFF71CFCC046BD4602B080BD8E
:1039F00080B582B000AF78600A00FB1C1A707B684B
:103A000018787B685968FB1C1A780B001F21FFF798
:103A1000CDFCC046BD4602B080BD80B582B000AFCF
:103A200078600A00FB1C1A707B6818787B685968FC
:103A3000FB1C1A780B002121FFF7B8FCC046BD46DD
:103A400002B080BD80B582B000AF78600A00FB1C78
:103A50001A707B6818787B685968FB1C1A780B0011
:103A60002021FFF7A3FCC046BD4602B080BD80B553
:103A700082B000AF78600A00FB1C1A707B6818786F
:103A80007B685968FB1C1A780B002221FFF78EFC1B
:103A9000C046BD4602B080BD80B584B002AF78603C
:103AA0000A00FB1C1A707B681878FB1C1A787B686C
:103AB0005B680093130006226A21FFF7B1FBC04642
:103AC000BD4602B080BD80B584B002AF78600A0008
:103AD000FB1C1A707B681878FB1C1A787B685B6883
:103AE0000093130007226A21FFF79AFBC046BD46E8
:103AF00002B080BD80B584B002AF78607B68187872
:103B00007B685B680093012302226A21FFF788FB30
:103B1000C046BD4602B080BD80B584B002AF7860BB
:103B20007B6818787B685B680093012303226A2115
:103B3000FFF776FBC046BD4602B080BD80B584B0BD
:103B400002AF78607B6818787B685B68009301231C
:103B500007226B21FFF764FBC046BD4602B080BD63
:103B600080B584B002AF78607B6818787B680833D2
:103B70001A00074B19887B685B6800930B003A2199
:103B8000FFF7F2FA7B681B7A1800BD4602B080BDD1
:103B90000000002080B582B000AF78607B689B6930
:103BA0001800BD4602B080BD80B584B002AF786019
:103BB0007B6818787B68083319000C4B1A887B687F
:103BC0005B68019300920B0002227221FFF7F0FA6A
:103BD0007B681B7A1B021AB27B685B7A1BB21343A9
:103BE0001BB29BB21800BD4602B080BD0000002091
:103BF00090B591B000AFF860B960FB1D1A7002F08B
:103C0000B3FB0300BB633723FB1800221A70FB6869
:103C10001800FFF7C9FF03001A003E217B181A8025
:103C20007B1800229A5EFB1D1B7801219A4201DC61
:103C30000023191CCBB2002B00D16FE03E243B19AE
:103C400000229B5EC82B26DDFB681800FFF752FFA1
:103C50003B1900221A80FB681800FFF7A5FF03003C
:103C60001A003E217B181A807B1800229B5E002BD5
:103C70000DD102F079FB0200BB6BD41AFB6818006F
:103C8000FFF788FF03009C4201D8012300E00023D6
:103C9000002B43D0DFE7FB681800FFF785FF030028
:103CA0001A003E217B181A807B1800229A5EFB1DA9
:103CB0001B7801219A4201DC0023191CCBB2002B96
:103CC0002CD03E217B181A88FB1D1B789BB2D31A7F
:103CD0009AB27B181A803E22BB1800215B5E002B33
:103CE000D9D0BB181B881AB2202A00DD20231AB2B3
:103CF00034243B191A803B191B88DAB21423F918B3
:103D0000FB68180000F04AF83E217B181A883B191E
:103D10001B88D31A9AB27B181A80DCE73E23FB1863
:103D200000229B5E002B01D1002333E03E23FB18D1
:103D30000021595EFB1D1A7837203B188A1A514220
:103D40004A411A703B181B7801225340DBB2002B0A
:103D50000DD002F009FB0200BB6BD41AFB681800FF
:103D6000FFF718FF03009C4201D9012300E0002364
:103D7000002B01D000230DE03723FB181B78002B0C
:103D800000D144E7FB1D1A78B968FB68180000F001
:103D900005F801231800BD4611B090BD90B587B05D
:103DA00002AFF860B960FB1D1A70FB1D1B78002B79
:103DB00010D0FB6818780B4B1A88FB685B68BC68EE
:103DC000F91D09780193009223000A007421FFF77E
:103DD000EFF902E0BB6800221A70C046BD4605B08C
:103DE00090BDC0460000002080B584B002AF78606E
:103DF0007B6818787B6808331900084B1A887B6841
:103E00005B68019300920B0000220021FFF774F918
:103E10007B681B7A1800BD4602B080BD0000002000
:103E200080B582B000AF786039603A687B68111C59
:103E3000181C06F0E2F8031C181CBD4602B080BD39
:103E400080B582B000AF78607B68181C06F0D9F8A6
:103E5000031C181CBD4602B080BD000080B588B0B0
:103E600004AF78607B681800FFF768FE1E2002F040
:103E700085FA7B6800211800FFF73AFB7868012378
:103E800001221021FFF74BFB7B6806211800FFF78A
:103E90007EFB7868002300220021FFF740FB7B684F
:103EA0001800FFF7A1FF7B687F2200211800FFF7B1
:103EB00083FB7B6800211800FFF7A4FB7B68682266
:103EC00000211800FFF778FB7B681800FFF7B1FBB3
:103ED000142002F053FA7B6803211800FFF7BBFBA4
:103EE0007B6812211800FFF7CEFB7B6804211800C5
:103EF000FFF7DEFB7B6801211800FFF7EEFB7B6814
:103F000003211800FFF701FC7B6803211800FFF76D
:103F100014FC7868314A324901230193002300934D
:103F20000023FFF722FC03001A0001235340DBB2F9
:103F3000002B01D001234DE00C217B188022520080
:103F40001A807868791800230293012301931623BD
:103F5000009302230222FFF72BFC7B680321180049
:103F6000FFF705FD7B6800211800FFF715FD7B6852
:103F700000211800FFF725FD7B6802211800FFF7DC
:103F800037FD7B689C211800FFF747FD7B685021B7
:103F90001800FFF757FD7B6800211800FFF767FD49
:103FA0007B6801211800FFF777FD7B681800FFF799
:103FB000B3FD7B6800211800FFF785FD7B682A228E
:103FC0009A857B681800FFF795FD7B681800FFF75E
:103FD000C7FD00231800BD4604B080BD890700005E
:103FE000C0A8000880B582B000AF786039607868FA
:103FF0007B689B8DDAB23B681900FFF7F9FD03007F
:10400000DBB21800BD4602B080BD80B584B000AF01
:10401000F860B9607A607B68002B02D1FB689B6A0C
:104020007B607B681B781B021AB27B6801331B78AC
:104030001BB213431AB2BB681A807B6804331B7827
:104040001B0219B27B6805331B781AB2BB680233B6
:104050000A4312B21A807B6808331B781B0219B21C
:104060007B6809331B781AB2BB6804330A4312B267
:104070001A807B680C331B781B0219B27B680D33E6
:104080001B781AB2BB6806330A4312B21A800023A7
:104090001800BD4604B080BDF0B589B000AFF8602F
:1040A000B9607A601F26BC197A6814257919FB68F3
:1040B0001800FFF7AAFF03002370BB191B78002B21
:1040C00041D17B1900229B5E1800FDF7B1F8031C5B
:1040D0008D21C905181CFCF7D9FB031C1A1CBB68F1
:1040E0001A607B1902229B5E1800FDF7A1F8031CE1
:1040F0008D21C905181CFCF7C9FB031C1A1CBB68E1
:104100005A607B1904229B5E1800FDF791F8031C8E
:104110008D21C905181CFCF7B9FB031C1A1CBB68D0
:104120009A607B1906229B5E1800FDF781F8031C3C
:104130008D21C905181CFCF7A9FB031C1A1CBB68C0
:10414000DA60002302E01F23FB181B781800BD462D
:1041500009B0F0BD90B585B000AFF860B9607A6085
:104160007B685A687B68DB68191C101CFCF756FDDD
:10417000031C1C1C7B681A687B689B68191C101C3C
:10418000FCF74CFD031C191C201CFCF76DFE031CE6
:10419000191C181CFCF7DCF9031C1A1CBB681A60FC
:1041A0007B681A687B685B68191C101CFCF736FD7D
:1041B000031C1C1C7B689A687B68DB68191C101C3C
:1041C000FCF72CFD031C191C201CFCF7C1F9031C77
:1041D000191C181CFCF7BCF9031C1A1CBB685A609C
:1041E0007B681A687B681B68191C101CFCF716FD9D
:1041F000031C1C1C7B685A687B685B68191C101CBC
:10420000FCF70CFD031C191C201CFCF72DFE031CE5
:104210001C1C7B689A687B689B68191C101CFCF747
:10422000FDFC031C191C201CFCF71EFE031C1C1C9F
:104230007B68DA687B68DB68191C101CFCF7EEFCF5
:10424000031C191C201CFCF783F9031C1A1CBB68F7
:104250009A6000231800BD4605B090BDB0B584B08B
:1042600000AFF860B9607A603B607B685B68191CDE
:10427000181CFCF76DF9031C1A1C7B689B68191C41
:10428000101CFCF7CBFC031C1C1C7B681B68191C56
:10429000181CFCF75DF9031C1A1C7B68DB68191CF1
:1042A000101CFCF7BBFC031C191C201CFCF7DCFDDC
:1042B000031C1C1C7B681B68191C181CFCF748F9A4
:1042C000031C1A1C7B681B68191C101CFCF7A6FC3D
:1042D000031C1D1C7B685B68191C181CFCF738F953
:1042E000031C1A1C7B685B68191C101CFCF796FCED
:1042F000031C191C281CFCF72BF9031CFE21890543
:10430000181CFCF7B1FD031C191C201CFFF788FDCD
:10431000021CBB681A603B681D683B685A683B68B2
:104320005B68191C101CFCF779FC031C1C1C3B6807
:104330009A683B689B68191C101CFCF76FFC031CF7
:10434000191C201CFCF704F9031C181CFFF778FD4E
:10435000021CBB681C1D111C281CFFF761FD031CFF
:1043600023603B685A683B689968BB6808331C0047
:10437000101CFFF755FD031C23603B689B68002160
:10438000181CFCF787F8031E35D0BB6804331B6884
:104390000021181CFCF792F8031E16D0BB680433EA
:1043A0001B68181CFEF7BAFD02000B0014481549E3
:1043B000FEF778F902000B00B9680C1D1000190017
:1043C000FEF7F4FD031C236015E0BB6804331B6893
:1043D000181CFEF7A3FD02000B0009480A49FEF76E
:1043E00061F902000B00B9680C1D10001900FEF7FE
:1043F000DDFD031C236000231800BD4604B0B0BDE2
:10440000182D4454FB210940FB2109C080B582B01E
:1044100000AF04F0B3FC03007B602D4B5A68E0232F
:10442000DB00134001D1012300E002231A007B6866
:1044300053437B607B6827491800FBF765FE030048
:104440007B60254B1B6800229A627B689BB2013B14
:104450009AB2214B1B68DA621F4B1B6801225A611A
:104460007868FEF735FD1D4A1D4BFDF7AFFE0200D3
:104470000B0010001900FCF74DF80300DBB2013B04
:10448000DAB2184B1A707868FEF722FD134A164B01
:10449000FDF79CFE02000B0010001900FCF73AF833
:1044A0000300DBB2013BDAB2104B1A70104B012251
:1044B0001A70094B1B6801220821180005F0A4FCA2
:1044C000012001F05BFFC046BD4602B080BDC04682
:1044D0000010024000350C0084020020EC51B81E90
:1044E00085EBE13F9000002085EBD13F910000205B
:1044F0006201002080B500AF00220021002000F002
:10450000E3F8C046BD4680BDB0B584B000AF05003D
:104510000C0010001900BB1D2A1C1A807B1D221CD8
:104520001A703B1D021C1A70FB1C0A1C1A70BB1D62
:104530001B88032B0ED90E217B18BA1D12889208F6
:104540001A807B181B889B009AB2BB1DB91D098875
:104550008A1A1A80404B1B78DBB201331900802382
:104560005800FBF75BFE03001A007B1D1B7811004F
:104570001800FBF753FE03001A007B1D1A70364B20
:104580001B78DBB20133190080235800FBF746FE8D
:1045900003001A003B1D1B7811001800FBF73EFEBC
:1045A00003001A003B1D1A702B4B1B78DBB2013342
:1045B000190080235800FBF731FE03001A00FB1C92
:1045C0001B7811001800FBF729FE03001A00FB1CE2
:1045D0001A703C1D3B1D1B78B021180000F04AFAF0
:1045E00003002370FC1CFB1C1B78F021180000F05A
:1045F00041FA030023700D217B183A1D12781A70BE
:104600000C203B187A1D12781A700B243B19FA1CE7
:1046100012781A70BB1D1A8813005B009B180F4A92
:1046200079180978D154BB1D1A8813005B009B18B8
:1046300001330A4A39180978D154BB1D1A8813006E
:104640005B009B180233054A39190978D154C046DA
:10465000BD4604B0B0BDC04602000020940000205A
:10466000F0B587B002AF05000C0010001900BB1DAB
:104670002A1C1A807B1D221C1A703B1D021C1A70FA
:10468000FB1C0A1C1A700F257C19FB1C1A783B1D99
:1046900019787B1D18780D26BB1901930E23FB1882
:1046A0000093230000F0FAF97B1919780E23FB1808
:1046B0001A78BB191C78BB1D18882300FFF724FF4C
:1046C000C046BD4605B0F0BDB0B584B000AF040033
:1046D00008001100FB1D221C1A70BB1D021C1A7061
:1046E0007B1D0A1C1A700E23FB1800221A8013E08F
:1046F0000E257B191B8898B27B1D1C78BB1D1A7870
:10470000FB1D19782300FFF7FFFE7B191B889BB266
:1047100001339AB27B191A800E23FB181B889BB2B7
:10472000032BE5D9C046C046BD4604B0B0BD00006D
:1047300080B584B000AFBF4B00221A70BE4B1B88FF
:104740009BB2002B05D1BD4B21229B5CDBB2012B20
:1047500001D000236AE1FB1D00221A70B9E0B84BBA
:104760001B78DBB21A00FB1D1B78DBB29A401300EA
:1047700080221340002B04DDB24B1B78DBB2190002
:1047800003E0B14B1B78DBB21900FB1D1B78DBB2D9
:104790001A00AE4B9200D150A94B5B78DBB21A00E5
:1047A000FB1D1B78DBB29A40130080221340002BC4
:1047B00004DDA44B1B78DBB2190003E0A24B1B788D
:1047C000DBB21900FB1D1B78DBB208331A009F4BCC
:1047D0009200D1509A4B9B78DBB21A00FB1D1B78DC
:1047E000DBB29A40130080221340002B04DD954B6E
:1047F0001B78DBB2190003E0934B1B78DBB2190086
:10480000FB1D1B78DBB210331A00904B9200D15085
:104810008B4BDB78DBB21A00FB1D1B78DBB29A40B6
:10482000130080221340002B04DD864B1B78DBB283
:10483000190003E0844B1B78DBB21900FB1D1B78C9
:10484000DBB218331A00814B9200D1507C4B1B799C
:10485000DBB21A00FB1D1B78DBB29A4013008022EA
:104860001340002B04DD774B1B78DBB2190003E00B
:10487000754B1B78DBB21900FB1D1B78DBB22033B4
:104880001A00724B9200D1506D4B5B79DBB21A006B
:10489000FB1D1B78DBB29A40130080221340002BD3
:1048A00004DD684B1B78DBB2190003E0664B1B7814
:1048B000DBB21900FB1D1B78DBB228331A00634BF7
:1048C0009200D150FB1D1B78DBB20133DAB2FB1D25
:1048D0001A70FB1D1B78DBB2072B00D83FE70F23B4
:1048E000FB1801221A7097E0594B40229B5CDBB207
:1048F000022B04D10F23FB1802221A708CE0544BB8
:1049000040229B5CDBB2012B1CD1514B4022022187
:1049100099544F4BDB6A4F4A9A624D4BDB6A4E4AC1
:10492000DA624B4BDB6A4D4A1A63494BD86A4749F6
:10493000474B1B683C331A00302302F059FA031E20
:104940000AD004E00F23FB1801221A7064E00F2341
:10495000FB1801221A705FE03D4B1B68DA683C4B84
:104960001B68802109010A43DA60394B1B683C4A05
:1049700093420ED0364B1B683A4A934209D0344BCF
:104980001B68394A934204D0314B1B68374A934223
:1049900001D1012300E00023002B08D02C4B1B6821
:1049A0005A6C2B4B1B68802109020A435A64284B1E
:1049B0001B682B4A93420FD0254B1A688023DB05D6
:1049C0009A4209D0224B1B68294A934204D0204BBB
:1049D0001B68244A934211D11D4B1B689B68072218
:1049E0001340BB60BB68062B11D0194B1B681A68BB
:1049F000174B1B6801210A431A6008E0144B1B681F
:104A00001A68134B1B6801210A431A6000E0C04674
:104A10000F23FB1800221A700F23FB181B78002BA2
:104A200000D061E7044B02221A8002231800BD4621
:104A300004B080BD6201002060010020CC02002093
:104A4000940000209000002091000020A000002091
:104A500084020020114D00082150000849970008E9
:104A6000002C01400040014000440140004801404A
:104A70000004004080B582B000AF0200FB1D1A7038
:104A8000BB1D0A1C1A70FB1D1B78BA1D12785343FC
:104A90001B12DBB21800BD4602B080BD90B589B0D4
:104AA00000AF0400080011003B60FB1D221C1A70BF
:104AB000BB1D021C1A707B1D0A1C1A70BB1D1B78C3
:104AC000002B0CD17B6B7A1D12781A707B6B1A78D5
:104AD0003B6B1A703B6B1A783B681A700CE1FB1D3C
:104AE0001B781800FCF7F2FB031C8549181CFBF728
:104AF000CDFE031CFB61BB1D1B781800FCF7E6FB19
:104B0000031C7F49181CFBF7C1FE031CBB617B1D06
:104B10001B781800FCF7DAFB031C7949181CFBF71B
:104B2000B5FE031C7B617749F869FCF777F8031C35
:104B3000181C05F0FBF9031C181CFCF759FB0300BB
:104B40003B617049F869FCF769F8031C1C1C386963
:104B5000FCF76EFB031C191C201CFCF785F9031CD9
:104B6000FB60B969FE208005FCF77EF9031C7969BA
:104B7000181CFCF753F8031C181CFEF7CFF9002291
:104B8000614BFDF723FB02000B000B217C1810008A
:104B90001900FBF7BFFC03002370B969F868FCF744
:104BA0003DF8031C191CFE208005FCF75DF9031C71
:104BB0007969181CFCF732F8031C181CFEF7AEF9D3
:104BC0000022514BFDF702FB02000B000A217C186A
:104BD00010001900FBF79EFC03002370F968FE200B
:104BE0008005FCF741F9031CB969181CFCF716F89D
:104BF000031C191CFE208005FCF736F9031C79699B
:104C0000181CFCF70BF8031C181CFEF787F9002290
:104C10003D4BFDF7DBFA02000B0009217C18100068
:104C20001900FBF777FC030023703B69062118008D
:104C3000FBF7DAFB0B00042B4FD89A00334BD31849
:104C40001B689F463B687A1D12781A703B6B0922DD
:104C5000BA1812781A707B6B0B22BA1812781A7075
:104C60004AE03B680A22BA1812781A703B6B7A1D28
:104C700012781A707B6B0B22BA1812781A703BE00C
:104C80003B680B22BA1812781A703B6B7A1D1278A7
:104C90001A707B6B0922BA1812781A702CE03B68E4
:104CA0000B22BA1812781A703B6B0A22BA181278C3
:104CB0001A707B6B7A1D12781A701DE03B6809220E
:104CC000BA1812781A703B6B0B22BA1812781A7045
:104CD0007B6B7A1D12781A700EE03B687A1D127891
:104CE0001A703B6B0B22BA1812781A707B6B0A226F
:104CF000BA1812781A70C046BD4609B090BDC046B9
:104D000000007F430000C04000E06F404CB000084E
:104D100080B584B000AF78607B685B6AFB607A68BE
:104D2000AE4B9A4200D052E1FA68AD4B9A4200D0A5
:104D30004DE1AC4B1B889BB2002B00D149E1FB68D5
:104D40005B6A7A689A420BD1FB6801221A777B680A
:104D50009B69002B36D1FB683E220121995431E03A
:104D6000FB689B6A7A689A420BD1FB6802221A7729
:104D70007B689B69002B25D1FB683F220121995458
:104D800020E0FB68DB6A7A689A420BD1FB68042258
:104D90001A777B689B69002B14D1FB6840220121A4
:104DA00099540FE0FB681B6B7A689A420AD1FB6842
:104DB00008221A777B689B69002B03D1FB6841228C
:104DC00001219954874B1B889BB2032B00D98FE09C
:104DD0000B23FB1800221A707BE0824B1B889BB2CE
:104DE0001A0013005B009B187F4AD35CDBB21A00E9
:104DF0000B23FB181B78DBB29A4013008022134070
:104E0000002B04DD794B1B78DBB2190003E0784BF3
:104E10001B78DBB219000B203B181B78DBB2183370
:104E20001A00744B9200D1506E4B1B889BB21A0033
:104E300013005B009B1801336B4AD35CDBB21A0092
:104E40003B181B78DBB29A40130080221340002BE2
:104E500004DD664B1B78DBB2190003E0644B1B7862
:104E6000DBB219000B203B181B78DBB220331A0091
:104E7000604B9200D1505B4B1B889BB21A00130011
:104E80005B009B180233584AD35CDBB21A003B1814
:104E90001B78DBB29A40130080221340002B04DD04
:104EA000524B1B78DBB2190003E0514B1B78DBB28D
:104EB00019000B203B181B78DBB228331A004D4B2E
:104EC0009200D1503B181B78DBB20133DAB23B18A9
:104ED0001A700B23FB181B78DBB2072B00D87CE77A
:104EE000404B1B889BB201339AB23E4B1A806AE05A
:104EF0003C4B1B889BB2052B0DD83F4B60220021F9
:104F0000180005F0CBFB374B1B889BB201339AB2DC
:104F1000344B1A8057E0334B00221A80FB681B6821
:104F2000DA68FB681B6835490A40DA60FB68DB6AAF
:104F3000180001F0C3FFFB681B68314A93420ED092
:104F4000FB681B682F4A934209D0FB681B682E4AF6
:104F5000934204D0FB681B682C4A934201D1012381
:104F600000E00023002B13D0FB681B681B6A284A53
:104F700013400DD1FB681B681B6A264A134007D1FA
:104F8000FB681B685A6CFB681B6823490A405A641B
:104F9000FB681B681B6A1E4A13400DD1FB681B6827
:104FA0001B6A1C4A134007D1FB681B681A68FB6820
:104FB0001B6801218A431A60FB6840220121995431
:104FC000164B01221A70FB6800221A7702E0C046D5
:104FD00000E0C046BD4604B080BDC046CC02002003
:104FE0008402002060010020940000209000002036
:104FF00091000020A000002000010020FFF7FFFF2B
:10500000002C0140004001400044014000480140A4
:105010001111000044040000FF7FFFFF6201002027
:1050200080B584B000AF78607B685B6AFB607A68AB
:105030005E4B9A4200D0B2E0FA685D4B9A4200D0D3
:10504000ADE05C4B1B889BB2002B00D1A9E0594B13
:105050001B889BB2032B00D98EE00B23FB18002288
:105060001A707AE0534B1B889BB21A0013005B0046
:105070009B18514AD35CDBB21A000B23FB181B7838
:10508000DBB29A40130080221340002B04DD4B4B0F
:105090001B78DBB2190003E0494B1B78DBB2190027
:1050A0000B203B181B78DBB21A00464B9200D15004
:1050B000404B1B889BB21A0013005B009B18013306
:1050C0003D4AD35CDBB21A003B181B78DBB29A4036
:1050D000130080221340002B04DD384B1B78DBB219
:1050E000190003E0364B1B78DBB219000B203B188C
:1050F0001B78DBB208331A00324B9200D1502D4B93
:105100001B889BB21A0013005B009B1802332A4ACB
:10511000D35CDBB21A003B181B78DBB29A40130059
:1051200080221340002B04DD244B1B78DBB21900D6
:1051300003E0234B1B78DBB219000B203B181B78D4
:10514000DBB210331A001F4B9200D1503B181B7872
:10515000DBB20133DAB23B181A700B23FB181B7851
:10516000DBB2072B00D87DE7124B1B889BB20133C3
:105170009AB2104B1A8015E00E4B1B889BB2052B80
:1051800010D8104B60220021180005F087FA094B57
:105190001B889BB201339AB2064B1A8002E0C046CC
:1051A00000E0C046BD4604B080BDC046CC02002031
:1051B0008402002060010020940000209000002064
:1051C00091000020A000002080B500AF01F072F82F
:1051D00000F01CF800F00EFA00F0E6F900F076F8A6
:1051E00000F062F900F0CCF800F00AF90549064B2E
:1051F0000A22180001F026FA00F0C2FC00F03AFE84
:10520000FCE7C046100300206401002090B599B06F
:1052100000AF2C243B19180034231A00002105F09C
:105220003DFA1C23FB18180010231A00002105F07A
:1052300035FA3B0018001C231A00002105F02EFA55
:1052400021007B1832221A607B180122DA607B1859
:1052500001221A627B1801225A617B1810221A61FE
:105260007B1810229A617B1800225A627B18180062
:1052700003F0A6F8031E01D000F056FA1C217B189B
:1052800007221A607B1803225A607B1800229A605A
:105290007B180022DA607B180121180003F016FC4D
:1052A000031E01D000F040FA3B0020221A603B00B0
:1052B00000221A613B00180003F076FD031E01D0A6
:1052C00000F032FAC046BD4619B090BD80B584B03A
:1052D00000AF3B1D18000C231A00002105F0DEF979
:1052E000254B264A1A60244B00225A60224B00228A
:1052F0009A60214B0022DA601F4B01221A611E4B7B
:1053000004225A611C4B00221A761B4B00225A764B
:10531000194B01229A76184B0022DA76164BC222DC
:10532000FF32DA61144B00221A62134B242201214E
:105330009954114B01229A620F4B180001F042F868
:10534000031E01D000F0F0F93B1D00221A603B1D46
:10535000802252015A603B1D07229A603A1D064B7B
:105360001100180001F008FA031E01D000F0DCF96A
:10537000C046BD4604B080BD640100200024014049
:1053800080B500AF1B4B1C4A1A601A4B1B4A5A606F
:10539000184B00229A60174B0122DA60154B00224D
:1053A0001A61144B00225A61124B00229A61114B70
:1053B0000022DA610F4B00221A620E4B180002F035
:1053C00079F8031E01D000F0AFF90A4B0021180054
:1053D00002F05EFF031E01D000F0A6F9054B00218C
:1053E000180002F0A1FF031E01D000F09DF9C04695
:1053F000BD4680BDE8010020005400400E09002099
:1054000080B586B000AF0823FB18180010231A00DF
:10541000002105F043F93B00180008231A00002181
:1054200005F03CF91E4B8022D2051A601C4B00226D
:105430005A601B4B00229A60194B1A4ADA60184BCB
:1054400000221A61164B00229A61154B180003F0D6
:10545000A9FD031E01D000F067F908217B18802206
:1054600052011A607A180E4B1100180004F070F8FF
:10547000031E01D000F058F93B0000221A603B00E7
:1054800000225A603A00064B1100180004F0E0FCBC
:10549000031E01D000F048F9C046BD4606B080BDED
:1054A0003C020020204E000080B58EB000AF2823C3
:1054B000FB18180010231A00002105F0EFF8202334
:1054C000FB18180008231A00002105F0E7F83B1D1F
:1054D00018001C231A00002105F0E0F82F4B304A79
:1054E0001A602E4B00225A602C4B00229A602B4BE4
:1054F0002C4ADA60294B00221A61284B00229A615B
:10550000264B180003F04EFD031E01D000F00CF9ED
:1055100028217B18802252011A607A181F4B110033
:10552000180004F015F8031E01D000F0FDF81B4B25
:10553000180003F0D9FD031E01D000F0F5F820217A
:105540007B1800221A607B1800225A607A18134BCD
:105550001100180004F07CFC031E01D000F0E4F8F8
:105560003B1D60221A603B1D00225A603B1D002239
:105570009A603B1D00221A61391D084B0822180051
:1055800003F020FF031E01D000F0CEF8034B1800FB
:1055900000F018FAC046BD460EB080BD840200205F
:1055A00000040040FFFF000080B582B000AF104B48
:1055B0005A690F4B01210A435A610D4B5B69012265
:1055C00013407B607B6800220021092001F096FBDC
:1055D000092001F0A8FB002200210A2001F08EFB27
:1055E0000A2001F0A0FBC046BD4602B080BDC04607
:1055F0000010024090B58BB000AF14243B19180086
:1056000014231A00002105F049F8434B5A69424B14
:10561000802109030A435A613F4B5A6980231B03C7
:1056200013403B613B693C4B5A693B4B8021C903AA
:105630000A435A61384B5A698023DB031340FB60ED
:10564000FB68354B5A69344B802189020A435A6101
:10565000314B5A6980239B021340BB60BB682E4BC1
:105660005A692D4B8021C9020A435A612A4B5A6953
:105670008023DB0213407B607B6880239B012748EB
:105680000022190001F0C2FE2549264B0022180015
:1056900001F0BCFE3B19802292011A603B190122E5
:1056A0005A603B1900229A603B190022DA603B19CC
:1056B0001A4A1900100001F031FD3B19184A1A600E
:1056C0003B1901225A603B1900229A603B190022C3
:1056D000DA603B19134A1900100001F01FFD210088
:1056E0007B1840221A607B18882252035A607B186C
:1056F00000229A607B180B4A1900100001F00EFD81
:1057000000220021072001F0F9FA072001F00BFB2D
:10571000C046BD460BB090BD0010024000080048D6
:10572000040400000004004880B500AF72B6C04613
:10573000FEE7000080B582B000AF0F4B9A690E4BB8
:1057400001210A439A610C4B9B69012213407B6043
:105750007B68094BDA69084B802149050A43DA6105
:10576000054BDA6980235B0513403B603B68C0460C
:10577000BD4602B080BDC0460010024090B58BB05F
:1057800000AF786014243B19180014231A0000217C
:1057900004F084FF7B681B682D4A934253D12D4B44
:1057A0009A692C4B802189000A439A61294B9A6996
:1057B00080239B0013403B613B69264B5A69254B74
:1057C000802189020A435A61224B5A6980239B0235
:1057D0001340FB60FB683B1901221A603B1903224E
:1057E0005A603B1900229A603A199023DB05110098
:1057F000180001F093FC184B184A1A60164B00224F
:105800005A60154B00229A60134B8022DA60124BCB
:10581000802252001A61104B8022D2005A610E4B36
:1058200020229A610C4B0022DA610B4B180001F028
:1058300097FA031E01D0FFF777FF7B68064A1A63C9
:10584000054B7A685A62C046BD460BB090BDC04653
:105850000024014000100240A40100200800024082
:1058600090B58BB000AF786014243B191800142356
:105870001A00002104F012FF7B681B681C4A934247
:1058800032D11C4B5A691B4B8021C9020A435A6111
:10589000184B5A698023DB0213403B613B693B197B
:1058A000C02292001A6021007B1812225A607B18D5
:1058B00000229A607B180322DA607B1801221A61A9
:1058C0007B180D4A1900100001F028FC094BDA6919
:1058D000084B802189030A43DA61064BDA69802389
:1058E0009B031340FB60FB68C046BD460BB090BDF8
:1058F00000540040001002400004004880B584B00D
:1059000000AF78607B681A688023DB059A4214D167
:10591000284BDA69274B01210A43DA61254BDB6901
:1059200001221340FB60FB68002200210F2001F0E0
:10593000E5F90F2001F0F7F938E07B681B681E4A93
:10594000934233D11B4BDA691A4B02210A43DA61C5
:10595000184BDB6902221340BB60BB68174B184A27
:105960001A60164B10225A60144B00229A60134B97
:105970008022DA60114B802292001A610F4B802244
:1059800012015A610D4B20229A610C4B0022DA6100
:105990000A4B180001F0E4F9031E01D0FFF7C4FE22
:1059A0007B68064ADA62054B7A685A62C046BD4691
:1059B00004B080BD0010024000040040CC02002072
:1059C0001C00024090B589B000AF78600C243B19F0
:1059D000180014231A00002104F060FE7B681B6885
:1059E000154A934223D1154B5A69144B8021C902A1
:1059F0000A435A61114B5A698023DB021340BB6092
:105A0000BB6821007B1801221A607B1812225A60A1
:105A10007B1800229A607B180322DA607B1801222F
:105A20001A617B18064A1900100001F077FBC04686
:105A3000BD4609B090BDC0460004004000100240C1
:105A40000004004880B500AFFEE780B500AFFEE778
:105A500080B500AFC046BD4680BD80B500AFC04632
:105A6000BD4680BD80B500AF00F06CFCC046BD46B1
:105A700080BD80B500AF402001F000FDC046BD46AE
:105A800080BD000080B500AF034B180001F05BFA49
:105A9000C046BD4680BDC046A401002080B500AF11
:105AA000034B180001F04FFAC046BD4680BDC0460A
:105AB000CC02002080B500AF034B180003F06CFB54
:105AC000C046BD4680BDC0463C02002080B584B0C3
:105AD00000AFF860B9607A60FA68BB689A4201DA90
